S0120000677265656E686F7573652E73726563DD
S11300000C9477000C9494000C9494000C94940039
S11300100C9494000C9494000C9494000C9494000C
S11300200C9494000C9494000C9494000C949400FC
S11300300C9494000C94D6030C9494000C949400A7
S11300400C94EE030C9494000C94BF040C94ED04F3
S11300500C9494000C942E040C9494000C9494002E
S11300600C9494000C9494000D0A477265656E68B4
S11300706F7573652073797374656D207374617221
S11300807465640D0A000D0A006C69676874006485
S113009061726B002520204C696768743A20002542
S11300A02020536F696C2068756D69646974793AAE
S11300B02000204320204169722068756D696469BD
S11300C074793A200054656D706572617475726557
S11300D03A20006C69676874006461726B004C3A82
S11300E02000533A2000483A2000543A20001124BA
S11300F01FBECFEFD8E0DEBFCDBF11E0A0E0B1E07E
S1130100ECE5FBE002C005900D92AA31B107D9F7E6
S113011021E0AAE1B1E001C01D92AA3AB207E1F7D9
S11301200E94FE020C94AC050C940000CF93DF9364
S113013088EB0E948004811117C082E00E949D0414
S113014089EB0E9480040E94A704C82F0E94B10476
S1130150D82F0E94BB048D2F8F77853008F0CF5F96
S1130160DD231CF4C19501C0C0E08C2F90E0DF9129
S1130170CF910895CF93DF9388EB0E94800481117F
S11301800EC00E949D0489EB0E9480040E94A70473
S1130190C82F0E94B104D82F0E94BB0402C0D0E033
S11301A0C0E0D53008F0CF5F8C2FDF91CF91089558
S11301B0FC01408121E030E002C0220F331F6A9528
S11301C0E2F7242B20830895FC01908121E030E0A4
S11301D002C0220F331F6A95E2F72095292320835A
S11301E00895FC01408121E030E002C0220F331F5A
S11301F06A95E2F7242B2083089585B1826085B93E
S113020085E08A95F1F7000085B18D7F85B9089561
S1130210CF93C82F662321F085B1816085B903C0CF
S113022085B18E7F85B98AB180618AB98AB18062CD
S11302308AB98AB180648AB98AB180688AB98BB173
S11302408F778BB98BB18F7B8BB98BB18F7D8BB94A
S11302508BB18F7E8BB9CC231CF48BB180688BB9A6
S1130260C6FF03C08BB180648BB9C5FF03C08BB1DB
S113027080628BB9C4FF03C08BB180618BB90E94CB
S1130280FD008BB18F778BB98BB18F7B8BB98BB121
S11302908F7D8BB98BB18F7E8BB9C3FF03C08BB1BC
S11302A080688BB9C2FF03C08BB180648BB9C1FF76
S11302B003C08BB180628BB9C0FF03C08BB1806176
S11302C08BB90E94FD008BB180618BB98BB18062C8
S11302D08BB98BB180648BB98BB180688BB987EB98
S11302E09BE00197F1F700C00000CF91089560E012
S11302F00E9408010895611104C080580E9477018A
S1130300089580540E947701089581E00E94770146
S1130310089561E00E9408010895CF93DF93FC01E2
S113032003C00E948901FE01EF01219680818111A1
S1130330F8CFDF91CF910895CF93DF93FC0103C0F1
S11303400E948901FE01EF01219684918111F8CF69
S1130350DF91CF910895CF93C82F84B1816084B980
S11303608AB180628AB984B1826084B98AB18061B9
S11303708AB98AB180628AB98AB180648AB98AB139
S113038080688AB98FEF99EF0197F1F700C00000F8
S11303908BB180628BB98BB180618BB90E94FD00F7
S11303A08FE19EE40197F1F700C000000E94FD0078
S11303B08FEF90E00197F1F700C000000E94FD006C
S11303C08FEF90E00197F1F700C000008BB18F7EB2
S11303D08BB90E94FD008FEF90E00197F1F700C008
S11303E0000088E20E94770188E00E9477010E9461
S11303F0850186E00E9477018C2F0E947701CF91BE
S113040008950F931F93FC01E61BF70B021B130BBC
S1130410E09FC001E19F900DF09F900D1124FA011F
S1130420E61BF70BBF010E946305C901860F971FE6
S11304301F910F910895AF92BF92CF92DF92EF92E6
S1130440FF920F931F93CF93DF9300D000D0CDB7CB
S1130450DEB75C017B018A01690180E290E29A8344
S113046089839C838B830E94850160E080E00E94E5
S11304707B018AEE90E00E949C014AE0BE016F5F1E
S11304807F4FC5010E947705CE0101960E948D0120
S113049061E080E00E947B0186EE90E00E949C0176
S11304A04AE0BE016F5F7F4FC6010E947705CE010F
S11304B001960E948D0160E088E00E947B0182EE3B
S11304C090E00E949C014AE0BE016F5F7F4FC7012C
S11304D00E947705CE0101960E948D0161E088E0BB
S11304E00E947B018EED90E00E949C010935124030
S11304F028F089ED90E00E949C0104C083ED90E017
S11305000E949C010F900F900F900F90DF91CF915C
S11305101F910F91FF90EF90DF90CF90BF90AF901D
S11305200895AF92BF92CF92DF92EF92FF920F9312
S11305301F93CF93DF9300D000D01F92CDB7DEB7C7
S11305405C017B018A01690185E0E0E0F1E0DE0104
S1130550119601900D928A95E1F785EC90E00E9446
S113056054054AE0BE016F5F7F4FC5010E947705C5
S1130570CE0101960E94470582EB90E00E9454054B
S11305804AE0BE016F5F7F4FC6010E947705CE012E
S113059001960E9447058FE990E00E9454054AE0C5
S11305A0BE016F5F7F4FC7010E947705CE010196A0
S11305B00E94470584E990E00E94540509351240E1
S11305C028F08FE890E00E94540504C089E890E088
S11305D00E94540586E890E00E9454050F900F9005
S11305E00F900F900F90DF91CF911F910F91FF907B
S11305F0EF90DF90CF90BF90AF9008950E94500489
S11306000E94710487E690E00E9417058CE00E9426
S1130610AB0188E690E00E94540560E082E00E940D
S11306207B0186E091E00E948D0161E084E00E94FC
S11306307B0181E191E00E948D012FEF83ED90E336
S1130640215080409040E1F700C000000E948501E5
S1130650ECE7F0E080818F77808380818064808301
S1130660EAE7F0E08081806880838081886080830D
S1130670808187608083E1E8F0E080818D7F8083E2
S1130680808185608083EFE6F0E0808181608083F3
S113069085B58D7F85BD85B5856085BDEEE6F0E0C9
S11306A08081816080837894809124018130E1F796
S11306B0109224010E9496009093230180932201BA
S11306C00E94BA0080932101E0911F01F091200162
S11306D004E610E020E030E045E251E063E570E03C
S11306E08FEF93E08E1B9F0B0E94010290932001D9
S11306F080931F0180911D0190911E0189359240C4
S113070020F084E00E94650403C084E00E946B042E
S113071080911F0190912001C29720F485E00E94EE
S1130720650403C085E00E946B04809122019091CE
S11307302301499724F4809121018F3120F082E034
S11307400E94650403C082E00E946B048091220130
S113075090912301489724F483E00E94650403C028
S113076083E00E946B042091210140911D0150916E
S11307701E0160911F0170912001809122019091CE
S1130780230130E00E941B022091210140911D01B0
S113079050911E0160911F017091200180912201EE
S11307A09091230130E00E9491027ECF1F920F921C
S11307B00FB60F9211248F9380911C018F5F809349
S11307C01C01823029F481E080931C018093240170
S11307D08F910F900FBE0F901F9018951F920F923C
S11307E00FB60F9211248F93EF93FF9380911B0107
S11307F08F5F80931B018A3049F510921B01809111
S11308001A01882319F0813091F020C0ECE7F0E060
S11308108081837F8083808183608083EAE7F0E046
S113082080818064808381E080931A010FC0ECE7AB
S1130830F0E08081827F8083808182608083EAE728
S1130840F0E080818064808310921A01FF91EF911F
S11308508F910F900FBE0F901F9018951F920F92BB
S11308600FB60F9211242F933F938F93209178000A
S11308703091790080917C008370833029F4309327
S1130880200120931F0104C030931E0120931D01F9
S11308908F913F912F910F900FBE0F901F9018953D
S11308A062E084E290E00E94D80063E084E290E099
S11308B00E94D80064E084E290E00E94D80065E0E1
S11308C084E290E00E94D8000895682F85E290E0C9
S11308D00E94F1000895682F85E290E00E94E400F0
S11308E0089587B18F7C87B988B1806388B9E9EBB3
S11308F0F0E080818C7F808388E98093B80008953C
S113090094EA9093BC009091BC009923E4F78093FF
S1130910BB0084E88093BC008091BC008823E4F78A
S11309208091B900887F883121F0803421F480E0FF
S1130930089580E0089581E008958093BB0084E8E1
S11309408093BC008091BC008823E4F7089584EC74
S11309508093BC008091BC008823E4F78091BB00A5
S1130960089584E88093BC008091BC008823E4F758
S11309708091BB00089584E98093BC0008951F9280
S11309800F920FB60F9211242F938F939F93EF938F
S1130990FF938091C0002091C6008C71E0912701E3
S11309A0EF5FEF7390912601E91739F0E093270187
S11309B0F0E0E65DFE4F208301C082E090912501C6
S11309C0892B80932501FF91EF919F918F912F9116
S11309D00F900FBE0F901F9018951F920F920FB695
S11309E00F9211248F939F93EF93FF93909129017A
S11309F080912801981769F0E0912801EF5FEF7367
S1130A00E0932801F0E0E659FE4F80818093C60010
S1130A1005C0E1ECF0E080818F7D8083FF91EF9150
S1130A209F918F910F900FBE0F901F901895109269
S1130A302901109228011092270110922601282FD3
S1130A40392F33231CF422E02093C0009078909334
S1130A50C5008093C40088E98093C10086E0809338
S1130A60C2000895209129012F5F2F7390912801CE
S1130A702917E1F3E22FF0E0E659FE4F808320933B
S1130A802901E1ECF0E08081806280830895CF93B6
S1130A90DF93EC0103C021960E9432058881811105
S1130AA0FACFDF91CF910895CF93DF93FC0103C078
S1130AB00E943205FE01EF01219684918111F8CF45
S1130AC0DF91CF910895AA1BBB1B51E107C0AA1F58
S1130AD0BB1FA617B70710F0A61BB70B881F991FDB
S1130AE05A95A9F780959095BC01CD010895BB272F
S1130AF04A3031F4992322F4BDE2909581959F4FB9
S1130B000C948305BB27FB015527AA27880F991F3F
S1130B10AA1FA41710F0A41B83955051B9F7A05D28
S1130B20AA3308F0A95DA193009779F7B111B193A5
S1130B301192CB010C949C05DC01FC01672F71918F
S1130B407723E1F7329704C07C916D9370836291AF
S10F0B50AE17BF07C8F30895F894FFCF58
S1130B5C202020202000477265656E686F757365D0
S10D0B6C0070726F6A656374000084
S9030000FC
