S0120000677265656E686F7573652E73726563DD
S11300000C9471000C948E000C948E000C948E0051
S11300100C948E000C948E000C948E000C948E0024
S11300200C948E000C948E000C948E000C948E0014
S11300300C948E000C94DA030C948E000C948E00B5
S11300400C94F2030C948E000C94C3040C94F104ED
S11300500C948E000C9432040C948E000C948E003C
S11300600C948E000C948E000D0A477265656E68C0
S11300706F7573652073797374656D207374617221
S11300807465640D0A000D0A006C69676874006485
S113009061726B002520204C696768743A20002542
S11300A02020536F696C2068756D69646974793AAE
S11300B020004320204169722068756D6964697469
S11300C0793A200054656D70657261747572653A91
S11300D020004C3A2000533A2000483A2000543A79
S11300E0200011241FBECFEFD8E0DEBFCDBF11E04A
S11300F0A0E0B1E0E4E6FBE002C005900D92AA3175
S1130100B107D9F721E0AAE1B1E001C01D92AA3AF2
S1130110B207E1F70E9402030C94B0050C940000AE
S1130120CF93DF9388EB0E948404811117C082E08F
S11301300E94A10489EB0E9484040E94AB04C82F8E
S11301400E94B504D82F0E94BF048D2F8F7785306D
S113015008F0CF5FDD231CF4C19501C0C0E08C2FF3
S113016090E0DF91CF910895CF93DF9388EB0E94C5
S1130170840481110EC00E94A10489EB0E948404AE
S11301800E94AB04C82F0E94B504D82F0E94BF045C
S113019002C0D0E0C0E0D53008F0CF5F8C2FDF91F3
S11301A0CF910895FC01408121E030E002C0220F8C
S11301B0331F6A95E2F7242B20830895FC01908174
S11301C021E030E002C0220F331F6A95E2F7209548
S11301D0292320830895FC01408121E030E002C0FE
S11301E0220F331F6A95E2F7242B2083089585B1EB
S11301F0826085B985E08A95F1F7000085B18D7F2D
S113020085B90895CF93C82F662321F085B1816005
S113021085B903C085B18E7F85B98AB180618AB9F9
S11302208AB180628AB98AB180648AB98AB18068E5
S11302308AB98BB18F778BB98BB18F7B8BB98BB12B
S11302408F7D8BB98BB18F7E8BB9CC231CF48BB192
S113025080688BB9C6FF03C08BB180648BB9C5FFBE
S113026003C08BB180628BB9C4FF03C08BB18061C2
S11302708BB90E94F7008BB18F778BB98BB18F7BD1
S11302808BB98BB18F7D8BB98BB18F7E8BB9C3FF4B
S113029003C08BB180688BB9C2FF03C08BB180648B
S11302A08BB9C1FF03C08BB180628BB9C0FF03C09F
S11302B08BB180618BB90E94F7008BB180618BB9DF
S11302C08BB180628BB98BB180648BB98BB1806840
S11302D08BB987EB9BE00197F1F700C00000CF9149
S11302E0089560E00E9402010895611104C08058DD
S11302F00E947101089580540E947101089581E063
S11303000E947101089561E00E9402010895CF9353
S1130310DF93FC0103C00E948301FE01EF012196DB
S113032080818111F8CFDF91CF910895CF93DF932E
S1130330FC0103C00E948301FE01EF012196849118
S11303408111F8CFDF91CF910895CF93C82F84B155
S1130350816084B98AB180628AB984B1826084B9C7
S11303608AB180618AB98AB180628AB98AB18064AB
S11303708AB98AB180688AB98FEF99EF0197F1F74A
S113038000C000008BB180628BB98BB180618BB9E6
S11303900E94F7008FE19EE40197F1F700C000008E
S11303A00E94F7008FEF90E00197F1F700C0000082
S11303B00E94F7008FEF90E00197F1F700C0000072
S11303C08BB18F7E8BB90E94F7008FEF90E001977D
S11303D0F1F700C0000088E20E94710188E00E94E9
S11303E071010E947F0186E00E9471018C2F0E949E
S11303F07101CF9108950F931F93FC01E61BF70B36
S1130400021B130BE09FC001E19F900DF09F900D24
S11304101124FA01E61BF70BBF010E946705C9010D
S1130420860F971F1F910F910895AF92BF92CF929D
S1130430DF92EF92FF920F931F93CF93DF9300D03D
S113044000D0CDB7DEB75C017B018A01690180E28F
S113045090E29A8389839C838B830E947F0160E06E
S113046080E00E9475018EED90E00E9496014AE0C2
S1130470BE016F5F7F4FC5010E947B05CE010196CF
S11304800E94870161E080E00E9475018AED90E09E
S11304900E9496014AE0BE016F5F7F4FC6010E9431
S11304A07B05CE0101960E94870160E088E00E94EE
S11304B0750186ED90E00E9496014AE0BE016F5FEF
S11304C07F4FC7010E947B05CE0101960E948701E0
S11304D061E088E00E94750182ED90E00E9496013F
S11304E04AE0BE016F5F7F4FC8010E947B05CE01C9
S11304F001960E9487010F900F900F900F90DF914B
S1130500CF911F910F91FF90EF90DF90CF90BF900C
S1130510AF9008950F931F93CF93DF9300D000D033
S11305201F92CDB7DEB78C0185E0E0E0F1E0DE019B
S1130530119601900D928A95E1F784EC90E00E9467
S113054058054AE0BE016F5F7F4FC8010E947B05DA
S1130550CE0101960E944B0588EF0E94360582EB7E
S113056090E00E945805809121014AE0BE016F5F2E
S11305707F4F90E00E947B05CE0101960E944B05BF
S11305808FE990E00E94580580911F01909120010D
S11305904AE0BE016F5F7F4F0E947B05CE0101964A
S11305A00E944B0584E990E00E94580580911D014A
S11305B090911E018935924028F08FE890E00E94C6
S11305C0580504C089E890E00E94580580911D01F7
S11305D090911E014AE0BE016F5F7F4F0E947B0530
S11305E0CE0101960E944B0586E890E00E945805D2
S11305F00F900F900F900F900F90DF91CF911F915C
S11306000F9108950E9454040E94750487E690E0B7
S11306100E941B058CE00E94A50188E690E00E94E0
S1130620580560E085E00E94750186E091E00E9433
S1130630870161E084E00E94750181E191E00E94FC
S113064087012FEF83ED90E3215080409040E1F744
S113065000C000000E947F01ECE7F0E080818F770A
S11306608083808180648083EAE7F0E08081806811
S11306708083808188608083808187608083E1E8D3
S1130680F0E080818D7F8083808185608083EFE6C8
S1130690F0E080818160808385B58D7F85BD85B5DF
S11306A0856085BDEEE6F0E080818160808378948A
S11306B0809124018130E1F7109224010E9490007E
S11306C090932301809322010E94B400809321011E
S11306D0E0911F01F091200104E610E020E030E0F9
S11306E045E251E063E570E08FEF93E08E1B9F0BD2
S11306F00E94FB019093200180931F0180911D01B2
S113070090911E018935924020F084E00E94690492
S113071003C084E00E946F0480911F019091200126
S1130720C29720F485E00E94690403C085E00E941A
S11307306F0480912201909123014A9724F48091BF
S113074021018F3120F082E00E94690403C082E01D
S11307500E946F048091220190912301499724F40F
S113076083E00E94690403C083E00E946F04209127
S1130770210140911D0150911E0160911F01709152
S11307802001809122019091230130E00E94150202
S11307902091210140911D0150911E0160911F0182
S11307A070912001809122019091230130E00E94F8
S11307B08A027ECF1F920F920FB60F9211248F934D
S11307C080911C018F5F80931C01823029F481E0A9
S11307D080931C01809324018F910F900FBE0F9082
S11307E01F9018951F920F920FB60F9211248F939A
S11307F0EF93FF9380911B018F5F80931B018A30DD
S113080049F510921B0180911A01882319F0813057
S113081091F020C0ECE7F0E08081837F80838081C9
S113082083608083EAE7F0E080818064808381E0F4
S113083080931A010FC0ECE7F0E08081827F80830F
S1130840808182608083EAE7F0E080818064808335
S113085010921A01FF91EF918F910F900FBE0F909C
S11308601F9018951F920F920FB60F9211242F9379
S11308703F938F93209178003091790080917C0090
S11308808370833029F43093200120931F0104C026
S113089030931E0120931D018F913F912F910F9052
S11308A00FBE0F901F90189562E084E290E00E94C2
S11308B0D20063E084E290E00E94D20064E084E22B
S11308C090E00E94D20065E084E290E00E94D200B1
S11308D00895682F85E290E00E94EB000895682F48
S11308E085E290E00E94DE00089587B18F7C87B98D
S11308F088B1806388B9E9EBF0E080818C7F8083E4
S113090088E98093B800089594EA9093BC0090918C
S1130910BC009923E4F78093BB0084E88093BC0077
S11309208091BC008823E4F78091B900887F8831E6
S113093021F0803421F480E0089580E0089581E07E
S113094008958093BB0084E88093BC008091BC0030
S11309508823E4F7089584EC8093BC008091BC0064
S11309608823E4F78091BB00089584E88093BC0059
S11309708091BC008823E4F78091BB00089584E94A
S11309808093BC0008951F920F920FB60F9211240A
S11309902F938F939F93EF93FF938091C0002091A7
S11309A0C6008C71E0912701EF5FEF7390912601EF
S11309B0E91739F0E0932701F0E0E65DFE4F20836C
S11309C001C082E090912501892B80932501FF913C
S11309D0EF919F918F912F910F900FBE0F901F90C9
S11309E018951F920F920FB60F9211248F939F9315
S11309F0EF93FF939091290180912801981769F052
S1130A00E0912801EF5FEF73E0932801F0E0E659ED
S1130A10FE4F80818093C60005C0E1ECF0E0808148
S1130A208F7D8083FF91EF919F918F910F900FBEE7
S1130A300F901F901895109229011092280110927E
S1130A40270110922601282F392F33231CF422E08A
S1130A502093C00090789093C5008093C40088E9E7
S1130A608093C10086E08093C200089520912901FB
S1130A702F5F2F73909128012917E1F3E22FF0E003
S1130A80E659FE4F808320932901E1ECF0E0808158
S1130A90806280830895CF93DF93EC0103C0219695
S1130AA00E94360588818111FACFDF91CF91089594
S1130AB0CF93DF93FC0103C00E943605FE01EF01D2
S1130AC0219684918111F8CFDF91CF910895AA1BCB
S1130AD0BB1B51E107C0AA1FBB1FA617B70710F025
S1130AE0A61BB70B881F991F5A95A9F78095909557
S1130AF0BC01CD010895BB274A3031F4992322F477
S1130B00BDE2909581959F4F0C948705BB27FB010F
S1130B105527AA27880F991FAA1FA41710F0A41BF2
S1130B2083955051B9F7A05DAA3308F0A95DA1934C
S1130B30009779F7B111B1931192CB010C94A005F0
S1130B40DC01FC01672F71917723E1F7329704C030
S1130B507C916D9370836291AE17BF07C8F30895BB
S1070B60F894FFCF33
S1130B64202020202000477265656E686F757365C8
S10D0B740070726F6A65637400007C
S9030000FC
