S0120000677265656E686F7573652E73726563DD
S11300000C9445000C9457000C9457000C94570022
S11300100C9457000C9457000C9457000C94570000
S11300200C9457000C9457000C9457000C945700F0
S11300300C9457000C94E2000C9457000C94570055
S11300400C9457000C9457000C947C010C94AA0156
S11300500C9457000C9457000C9457000C945700C0
S11300600C9457000C9457000D0A477265656E682E
S11300706F757365204D26432073797374656D2005
S1130080737461727465640D0A0011241FBECFEF8E
S1130090D8E0DEBFCDBF21E0A0E0B1E001C01D92F9
S11300A0A538B207E1F70E94C7000C9455020C94DE
S11300B00000CF93DF9388EB0E943D01811116C0AD
S11300C082E00E945A0189EB0E943D010E94640172
S11300D0C82F0E946E01D82F0E9478018D2F8F7730
S11300E0853008F0CF5FDD230CF4C1958C2F90E0B0
S11300F0DF91CF910895FC01408121E030E002C0FE
S1130100220F331F6A95E2F7242B20830895FC0104
S1130110908121E030E002C0220F331F6A95E2F79C
S11301202095292320830895FC01408121E030E0BB
S113013002C0220F331F6A95E2F7242B208308950F
S113014067E070E08AE290E00E947B0066E070E085
S11301508AE290E00E947B0065E070E08AE290E031
S11301600E947B0064E070E08AE290E00E947B00E1
S11301700895682F70E08BE290E00E949400089547
S1130180682F70E08BE290E00E94870008950E943F
S1130190A0000E942E0187E690E00E94D40188E628
S11301A090E00E941102E1E8F0E080818D7F80837D
S11301B0808185608083EFE6F0E0808181608083C8
S11301C07894FFCF1F920F920FB60F9211240F93C2
S11301D01F932F933F934F935F936F937F938F93CB
S11301E09F93AF93BF93EF93FF93CF93DF93CDB7D9
S11301F0DEB72697DEBFCDBF0E9459008C014AE0CE
S1130200BE016F5F7F4F0E942002CE0101960E94C3
S113021004020D31110524F087E00E94B90003C0E7
S113022087E00E94C00026960FB6F894DEBF0FBE8A
S1130230CDBFDF91CF91FF91EF91BF91AF919F918E
S11302408F917F916F915F914F913F912F911F916A
S11302500F910F900FBE0F901F90189587B18F7C50
S113026087B988B1806388B9E9EBF0E080818C7F3D
S1130270808388E98093B800089594EA9093BC0041
S11302809091BC009923E4F78093BB0084E88093A9
S1130290BC008091BC008823E4F78091B900887F7A
S11302A0883121F0803421F480E0089580E00895BD
S11302B081E008958093BB0084E88093BC00809122
S11302C0BC008823E4F7089584EC8093BC008091FB
S11302D0BC008823E4F78091BB00089584E88093F0
S11302E0BC008091BC008823E4F78091BB00089592
S11302F084E98093BC0008951F920F920FB60F9269
S113030011242F938F939F93EF93FF938091C000B9
S11303102091C6008C71E0910201EF5FEF73909120
S11303200101E91739F0E0930201F0E0EB5FFE4FC1
S1130330208301C082E090910001892B8093000109
S1130340FF91EF919F918F912F910F900FBE0F907E
S11303501F9018951F920F920FB60F9211248F932E
S11303609F93EF93FF939091040180910301981759
S113037069F0E0910301EF5FEF73E0930301F0E0B4
S1130380EB5BFE4F80818093C60005C0E1ECF0E09A
S113039080818F7D8083FF91EF919F918F910F904A
S11303A00FBE0F901F901895109204011092030134
S11303B01092020110920101282F392F33231CF4CB
S11303C022E02093C00090789093C5008093C400ED
S11303D088E98093C10086E08093C200089520914B
S11303E004012F5F2F73909103012917E1F3E22F8A
S11303F0F0E0EB5BFE4F808320930401E1ECF0E03E
S11304008081806280830895CF93DF93EC0103C0E1
S113041021960E94EF0188818111FACFDF91CF915B
S11304200895CF93DF93FC0103C00E94EF01FE0106
S1130430EF01219684918111F8CFDF91CF91089536
S1130440BB274A3031F4992322F4BDE2909581957B
S11304509F4F0C942C02BB27FB015527AA27880F1A
S1130460991FAA1FA41710F0A41B83955051B9F724
S1130470A05DAA3308F0A95DA193009779F7B111A3
S1130480B1931192CB010C944502DC01FC01672F5E
S113049071917723E1F7329704C07C916D93708357
S11104A06291AE17BF07C8F30895F894FFCF1A
S9030000FC
