S0120000677265656E686F7573652E73726563DD
S11300000C944A000C9467000C9467000C946700ED
S11300100C9467000C9467000C9467000C946700C0
S11300200C9467000C9467000C9467000C946700B0
S11300300C9467000C94D7000C9467000C94670030
S11300400C9467000C9467000C94BD010C94EB01B4
S11300500C9467000C9467000C9467000C94670080
S11300600C9467000C946700493243206572720D4A
S11300700A000D0A477265656E686F757365204DD9
S113008026432073797374656D207374617274658B
S1130090640D0A0011241FBECFEFD8E0DEBFCDBF30
S11300A011E0A0E0B1E0E0E3F5E002C005900D92BC
S11300B0A630B107D9F721E0A6E0B1E001C01D9256
S11300C0AB38B207E1F70E94A7000C9496020C9497
S11300D00000FC01408121E030E002C0220F331F08
S11300E06A95E2F7242B20830895FC01908121E096
S11300F030E002C0220F331F6A95E2F720952923CE
S113010020830895FC01408121E030E002C0220FE9
S1130110331F6A95E2F7242B2083089567E070E08B
S11301208BE290E00E94690066E070E08BE290E070
S11301300E94690065E070E08BE290E00E94690033
S113014064E070E08BE290E00E94690008950E94F0
S11301508E0065E070E08BE290E00E9482002FEF59
S113016089E698E1215080409040E1F700C000000A
S113017065E070E08BE290E00E9475000E946F01E0
S113018087E690E00E94150282E790E00E94520206
S1130190E1E8F0E080818D7F8083808185608083C9
S11301A0EFE6F0E08081816080837894FFCF1F9236
S11301B00F920FB60F921124EF92FF920F931F9399
S11301C02F933F934F935F936F937F938F939F935B
S11301D0AF93BF93EF93FF93CF93DF9300D01F921E
S11301E0CDB7DEB788EB0E947E0120E230E23A838D
S11301F0298390E29B83811154C00E949B0189EB67
S11302000E947E010E94A501E82E0E94A501F82EFD
S11302100E94A501082F0E94AF01182F0E94B90166
S11302204AE0BE016F5F7F4F8E2D90E00E94610215
S1130230CE0101960E94450280E091E00E944502B1
S11302404AE0BE016F5F7F4F8F2D90E00E946102F4
S1130250CE0101960E94450280E091E00E94450291
S11302604AE0BE016F5F7F4F802F90E00E946102E1
S1130270CE0101960E94450280E091E00E94450271
S11302804AE0BE016F5F7F4F812F90E00E946102C0
S1130290CE0101960E94450282E091E00E9445024F
S11302A004C088E690E00E9452020F900F900F90D5
S11302B0DF91CF91FF91EF91BF91AF919F918F917A
S11302C07F916F915F914F913F912F911F910F916A
S11302D0FF90EF900F900FBE0F901F90189587B16D
S11302E08F7C87B988B1806388B9E9EBF0E08081BD
S11302F08C7F808388E98093B800089594EA909372
S1130300BC009091BC009923E4F78093BB0084E87F
S11303108093BC008091BC008823E4F78091B900ED
S1130320887F883121F0803421F480E0089580E0D2
S1130330089581E008958093BB0084E88093BC0015
S11303408091BC008823E4F7089584EC8093BC007A
S11303508091BC008823E4F78091BB00089584E871
S11303608093BC008091BC008823E4F78091BB009B
S1130370089584E98093BC0008951F920F920FB6EC
S11303800F9211242F938F939F93EF93FF93809158
S1130390C0002091C6008C71E0910801EF5FEF73FB
S11303A090910701E91739F0E0930801F0E0E55F67
S11303B0FE4F208301C082E090910601892B809337
S11303C00601FF91EF919F918F912F910F900FBE96
S11303D00F901F9018951F920F920FB60F92112431
S11303E08F939F93EF93FF9390910A01809109015A
S11303F0981769F0E0910901EF5FEF73E093090149
S1130400F0E0E55BFE4F80818093C60005C0E1EC1F
S1130410F0E080818F7D8083FF91EF919F918F9198
S11304200F900FBE0F901F90189510920A01109212
S113043009011092080110920701282F392F332344
S11304401CF422E02093C00090789093C500809320
S1130450C40088E98093C10086E08093C2000895B7
S113046020910A012F5F2F73909109012917E1F35D
S1130470E22FF0E0E55BFE4F808320930A01E1EC7C
S1130480F0E08081806280830895CF93DF93EC0154
S113049003C021960E94300288818111FACFDF9136
S11304A0CF910895CF93DF93FC0103C00E943002E3
S11304B0FE01EF01219684918111F8CFDF91CF9154
S11304C00895BB274A3031F4992322F4BDE2909574
S11304D081959F4F0C946D02BB27FB015527AA27DA
S11304E0880F991FAA1FA41710F0A41B83955051BD
S11304F0B9F7A05DAA3308F0A95DA193009779F735
S1130500B111B1931192CB010C948602DC01FC0170
S1130510672F71917723E1F7329704C07C916D9333
S113052070836291AE17BF07C8F30895F894FFCFA4
S109053020000D0A00008A
S9030000FC
