S0120000677265656E686F7573652E73726563DD
S11300000C9473000C9490000C9490000C94900049
S11300100C9490000C9490000C9490000C9490001C
S11300200C9490000C9490000C9490000C9490000C
S11300300C9490000C94D3030C9490000C949000B6
S11300400C94EB030C9490000C94BC040C94EA0400
S11300500C9490000C942B040C9490000C9490003D
S11300600C9490000C9490000D0A000D0A006C6929
S1130070676874006461726B002520204C696768AE
S1130080743A2000252020536F696C2068756D69CF
S1130090646974793A2000432020416972206875AC
S11300A06D69646974793A200054656D7065726194
S11300B0747572653A20000D0A477265656E686F43
S11300C07573652073797374656D207374617274CC
S11300D065640D0A004C3A2000533A2000483A2047
S11300E000543A20000011241FBECFEFD8E0DEBF39
S11300F0CDBF11E0A0E0B1E0E6E5FBE002C0059071
S11301000D92AA31B107D9F721E0AAE1B1E001C00B
S11301101D92AA3AB207E1F70E948C020C94A90539
S11301200C940000CF93DF9388EB0E947D0481112F
S113013017C082E00E949A0489EB0E947D040E9409
S1130140A404C82F0E94AE04D82F0E94B8048D2F97
S11301508F77853008F0CF5FDD231CF4C19501C093
S1130160C0E08C2F90E0DF91CF910895CF93DF937F
S113017088EB0E947D0481110EC00E949A0489EBD1
S11301800E947D040E94A404C82F0E94AE04D82FAC
S11301900E94B80402C0D0E0C0E0D53008F0CF5FC0
S11301A08C2FDF91CF910895FC01408121E030E054
S11301B002C0220F331F6A95E2F7242B208308958F
S11301C0FC01908121E030E002C0220F331F6A95C8
S11301D0E2F72095292320830895FC01408121E042
S11301E030E002C0220F331F6A95E2F7242B2083EC
S11301F0089585B1826085B985E08A95F1F700009C
S113020085B18D7F85B90895CF93C82F662321F0DA
S113021085B1816085B903C085B18E7F85B98AB106
S113022080618AB98AB180628AB98AB180648AB9E4
S11302308AB180688AB98BB18F778BB98BB18F7B88
S11302408BB98BB18F7D8BB98BB18F7E8BB9CC235E
S11302501CF48BB180688BB9C6FF03C08BB180647A
S11302608BB9C5FF03C08BB180628BB9C4FF03C0D7
S11302708BB180618BB90E94F9008BB18F778BB9F8
S11302808BB18F7B8BB98BB18F7D8BB98BB18F7E0B
S11302908BB9C3FF03C08BB180688BB9C2FF03C0A5
S11302A08BB180648BB9C1FF03C08BB180628BB901
S11302B0C0FF03C08BB180618BB90E94F9008BB180
S11302C080618BB98BB180628BB98BB180648BB93F
S11302D08BB180688BB987EB9BE00197F1F700C085
S11302E00000CF91089560E00E9404010895611117
S11302F004C080580E947301089580540E947301C1
S1130300089581E00E947301089561E00E94040150
S11303100895CF93DF93FC0103C00E948501FE0181
S1130320EF01219680818111F8CFDF91CF9108955B
S1130330CF93DF93FC0103C00E948501FE01EF010E
S1130340219684918111F8CFDF91CF910895CF93B5
S1130350C82F84B1816084B98AB180628AB984B1BA
S1130360826084B98AB180618AB98AB180628AB9AB
S11303708AB180648AB98AB180688AB98FEF99EFAB
S11303800197F1F700C000008BB180628BB98BB18B
S113039080618BB90E94F9008FE19EE40197F1F727
S11303A000C000000E94F9008FEF90E00197F1F780
S11303B000C000000E94F9008FEF90E00197F1F770
S11303C000C000008BB18F7E8BB90E94F9008FEFC3
S11303D090E00197F1F700C0000088E20E947301E9
S11303E088E00E9473010E94810186E00E947301EB
S11303F08C2F0E947301CF9108950F931F93FC01DA
S1130400E61BF70B021B130BE09FC001E19F900D4D
S1130410F09F900D1124FA01E61BF70BBF010E9417
S11304206005C901860F971F1F910F910895AF9220
S1130430BF92CF92DF92EF92FF920F931F93CF93CD
S1130440DF9300D000D0CDB7DEB75C017B018A0119
S1130450690180E290E29A8389839C838B830E9462
S1130460810160E080E00E94770181EE90E00E94CB
S113047098014AE0BE016F5F7F4FC5010E94740579
S1130480CE0101960E94890161E080E00E9477011B
S11304908DED90E00E9498014AE0BE016F5F7F4FAE
S11304A0C6010E947405CE0101960E94890160E094
S11304B088E00E94770189ED90E00E9498014AE06B
S11304C0BE016F5F7F4FC7010E947405CE01019684
S11304D00E94890161E088E00E94770185ED90E047
S11304E00E9498014AE0BE016F5F7F4FC8010E94DD
S11304F07405CE0101960E9489010F900F900F9010
S11305000F90DF91CF911F910F91FF90EF90DF90AB
S1130510CF90BF90AF900895CF93DF9300D000D0D9
S11305201F92CDB7DEB70E944D040E946E0487E689
S113053090E00E9414058CE00E94A70187EB90E0F4
S11305400E94510560E085E00E94770186E091E019
S11305500E94890161E084E00E94770181E191E0D9
S11305600E9489012FEF83ED90E321508040904059
S1130570E1F700C000000E948101ECE7F0E0808117
S11305808F778083808180648083EAE7F0E08081D4
S11305908068808380818860808380818760808395
S11305A0E1E8F0E080818D7F8083808185608083B5
S11305B0EFE6F0E080818160808385B58D7F85BD25
S11305C085B5856085BDEEE6F0E08081816080833D
S11305D07894809124018130E1F7109224010E94E3
S11305E0920090932301809322010E94B60080938D
S11305F02101E0911F01F091200104E610E020E0C8
S113060030E045E251E063E570E08FEF93E08E1B4C
S11306109F0B0E94FD019093200180931F0189EAA2
S113062090E00E94510585E0E0E0F1E0DE011196E2
S113063001900D928A95E1F7809122019091230116
S11306404AE0BE016F5F7F4F0E947405CE010196A0
S11306500E94440588EF0E942F0587E990E00E94DC
S11306605105809121014AE0BE016F5F7F4F90E008
S11306700E947405CE0101960E94440584E890E02E
S11306800E94510580911F01909120014AE0BE0112
S11306906F5F7F4F0E947405CE0101960E9444054E
S11306A089E790E00E94510580911D0190911E01FF
S11306B08935924028F084E790E00E94510504C0F7
S11306C08EE690E00E94510580911D0190911E01DB
S11306D04AE0BE016F5F7F4F0E947405CE01019610
S11306E00E9444058BE690E00E94510580911D0113
S11306F090911E018935924020F084E00E946204AA
S113070003C084E00E94680480911F01909120013D
S11307104AE0BE016F5F7F4F0E947405CE010196CF
S11307200E94440588E690E00E94510580911F01D3
S113073090912001C29720F485E00E94620403C0D6
S113074085E00E94680480912201909123014A97D8
S113075024F4809121018F3120F082E00E94620410
S113076003C082E00E9468048091220190912301D9
S1130770499724F483E00E94620403C083E00E944A
S113078068042091210140911D0150911E01609146
S11307901F0170912001809122019091230130E08A
S11307A00E94170216CF1F920F920FB60F921124B8
S11307B08F9380911C018F5F80931C01823029F4F8
S11307C081E080931C01809324018F910F900FBED0
S11307D00F901F9018951F920F920FB60F9211242D
S11307E08F93EF93FF9380911B018F5F80931B0185
S11307F08A3049F510921B0180911A01882319F05F
S1130800813091F020C0ECE7F0E08081837F808329
S1130810808183608083EAE7F0E080818064808364
S113082081E080931A010FC0ECE7F0E08081827FC1
S11308308083808182608083EAE7F0E08081806445
S1130840808310921A01FF91EF918F910F900FBE48
S11308500F901F9018951F920F920FB60F921124AC
S11308602F933F938F93209178003091790080915A
S11308707C008370833029F43093200120931F017E
S113088004C030931E0120931D018F913F912F913D
S11308900F900FBE0F901F90189562E084E290E0D5
S11308A00E94D40063E084E290E00E94D40064E0FB
S11308B084E290E00E94D40065E084E290E00E942B
S11308C0D4000895682F85E290E00E94ED00089519
S11308D0682F85E290E00E94E000089587B18F7C44
S11308E087B988B1806388B9E9EBF0E080818C7FB7
S11308F0808388E98093B800089594EA9093BC00BB
S11309009091BC009923E4F78093BB0084E8809322
S1130910BC008091BC008823E4F78091B900887FF3
S1130920883121F0803421F480E0089580E0089536
S113093081E008958093BB0084E88093BC0080919B
S1130940BC008823E4F7089584EC8093BC00809174
S1130950BC008823E4F78091BB00089584E8809369
S1130960BC008091BC008823E4F78091BB0008950B
S113097084E98093BC0008951F920F920FB60F92E2
S113098011242F938F939F93EF93FF938091C00033
S11309902091C6008C71E0912701EF5FEF73909175
S11309A02601E91739F0E0932701F0E0E65DFE4FF8
S11309B0208301C082E090912501892B8093250139
S11309C0FF91EF919F918F912F910F900FBE0F90F8
S11309D01F9018951F920F920FB60F9211248F93A8
S11309E09F93EF93FF939091290180912801981789
S11309F069F0E0912801EF5FEF73E0932801F0E0E4
S1130A00E659FE4F80818093C60005C0E1ECF0E01A
S1130A1080818F7D8083FF91EF919F918F910F90C3
S1130A200FBE0F901F901895109229011092280163
S1130A301092270110922601282F392F33231CF4FA
S1130A4022E02093C00090789093C5008093C40066
S1130A5088E98093C10086E08093C20008952091C4
S1130A6029012F5F2F73909128012917E1F3E22FB9
S1130A70F0E0E659FE4F808320932901E1ECF0E099
S1130A808081806280830895CF93DF93EC0103C05B
S1130A9021960E942F0588818111FACFDF91CF9191
S1130AA00895CF93DF93FC0103C00E942F05FE013C
S1130AB0EF01219684918111F8CFDF91CF910895B0
S1130AC0AA1BBB1B51E107C0AA1FBB1FA617B70770
S1130AD010F0A61BB70B881F991F5A95A9F780958C
S1130AE09095BC01CD010895BB274A3031F4992378
S1130AF022F4BDE2909581959F4F0C948005BB270D
S1130B00FB015527AA27880F991FAA1FA41710F0C5
S1130B10A41B83955051B9F7A05DAA3308F0A95DD1
S1130B20A193009779F7B111B1931192CB010C9471
S1130B309905DC01FC01672F71917723E1F7329766
S1130B4004C07C916D9370836291AE17BF07C8F3A4
S1090B500895F894FFCFA4
S1130B56202020202000477265656E686F757365D6
S10D0B660070726F6A65637400008A
S9030000FC
