S0120000677265656E686F7573652E73726563DD
S11300000C9445000C9457000C9457000C94570022
S11300100C9457000C9457000C9457000C94570000
S11300200C9457000C9457000C9457000C945700F0
S11300300C9457000C94C8000C9457000C9457006F
S11300400C9457000C9457000C9463010C94910188
S11300500C9457000C9457000C9457000C945700C0
S11300600C9457000C9457000D0A477265656E682E
S11300706F757365204D26432073797374656D2005
S1130080737461727465640D0A0011241FBECFEF8E
S1130090D8E0DEBFCDBF21E0A0E0B1E001C01D92F9
S11300A0AA38B207E1F70E94A7000C94FA010C9455
S11300B00000CF93DF9388EB0E942401811117C0C5
S11300C082E00E94410189EB0E9424010E944B01BD
S11300D0C82F0E945501D82F0E945F018D2F8F7762
S11300E0853008F0CF5FDD231CF4C19501C0C0E06A
S11300F08C2F90E0DF91CF910895CF93DF9388EB1D
S11301000E94240181110EC00E94410189EB0E94CA
S113011024010E944B01C82F0E945501D82F0E9430
S11301205F0102C0D0E0C0E0D53008F0CF5F8C2F73
S1130130DF91CF910895FC01408121E030E002C0BD
S1130140220F331F6A95E2F7242B208308950E941F
S113015000010E94150187E690E00E94BB0188E639
S113016090E00E94EB01E1E8F0E080818D7F8083E4
S1130170808185608083EFE6F0E080818160808308
S11301807894809104018130E1F710920401F9CF51
S11301901F920F920FB60F9211242F933F934F93F8
S11301A05F936F937F938F939F93AF93BF93EF93DB
S11301B0FF93809100018F5F80930001803129F4C7
S11301C081E080930001809304010E945900909380
S11301D00301809302010E947D0080930101FF913D
S11301E0EF91BF91AF919F918F917F916F915F91AB
S11301F04F913F912F910F900FBE0F901F90189524
S113020067E08AE290E00E949B0066E08AE290E068
S11302100E949B0065E08AE290E00E949B0064E0FB
S11302208AE290E00E949B00089587B18F7C87B991
S113023088B1806388B9E9EBF0E080818C7F8083AA
S113024088E98093B800089594EA9093BC00909153
S1130250BC009923E4F78093BB0084E88093BC003E
S11302608091BC008823E4F78091B900887F8831AD
S113027021F0803421F480E0089580E0089581E045
S113028008958093BB0084E88093BC008091BC00F7
S11302908823E4F7089584EC8093BC008091BC002B
S11302A08823E4F78091BB00089584E88093BC0020
S11302B08091BC008823E4F78091BB00089584E911
S11302C08093BC0008951F920F920FB60F921124D1
S11302D02F938F939F93EF93FF938091C00020916E
S11302E0C6008C71E0910701EF5FEF7390910601F6
S11302F0E91739F0E0930701F0E0E65FFE4F208351
S113030001C082E090910501892B80930501FF9142
S1130310EF919F918F912F910F900FBE0F901F908F
S113032018951F920F920FB60F9211248F939F93DB
S1130330EF93FF939091090180910801981769F058
S1130340E0910801EF5FEF73E0930801F0E0E65BF2
S1130350FE4F80818093C60005C0E1ECF0E080810F
S11303608F7D8083FF91EF919F918F910F900FBEAE
S11303700F901F9018951092090110920801109285
S1130380070110920601282F392F33231CF422E091
S11303902093C00090789093C5008093C40088E9AE
S11303A08093C10086E08093C200089520910901E2
S11303B02F5F2F73909108012917E1F3E22FF0E0EA
S11303C0E65BFE4F808320930901E1ECF0E080813D
S11303D0806280830895CF93DF93FC0103C00E9461
S11303E0D601FE01EF01219684918111F8CFDF91AE
S10B03F0CF910895F894FFCFAA
S9030000FC
